:100000000C94BA000C94D7000C94D7000C94D70031
:100010000C94D7000C94D7000C94D7000C94D70004
:100020000C94D7000C94D7000C94D7000C94D700F4
:100030000C94D7000C94F1060C94D7000C94D700C4
:100040000C94D7000C94D7000C94D7000C94D700D4
:100050000C94D7006E616E00696E660032303A34DF
:10006000353A323900323032302D31312D303400D2
:10007000333500312E302E300000407A10F35A0014
:10008000A0724E18090010A5D4E80000E8764817C1
:100090000000E40B54020000CA9A3B000000E1F5A6
:1000A00005000080969800000040420F000000A06C
:1000B0008601000000102700000000E80300000097
:1000C000006400000000000A0000000000010000C1
:1000D0000000002C76D888DC674F0823DFC1DFAE34
:1000E00059E1B1B796E5E3E453C63AE651997696FD
:1000F000E8E6C28426EB898C9B62ED407C6FFCEFC6
:10010000BC9C9F40F2BAA56FA5F490055A2AF75CF3
:10011000936B6CF9676DC11BFCE0E40D47FEF520A5
:10012000E6B500D0ED902E0300943577050080846D
:100130001E080000204E0A000000C80C3333333381
:100140000F986E12831141EF8D2114893BE65516ED
:10015000CFFEE6DB18D1844B381BF77C1D901DA425
:10016000BBE424203284725E228100C9F124ECA118
:10017000E53D270011241FBECFE5D8E0DEBFCDBF8F
:1001800011E0A0E6B0E0E2E8F8E102C005900D92CF
:10019000AA3AB107D9F722E0AAEAB1E001C01D925C
:1001A000A335B207E1F70E9428070C943F0C0C948A
:1001B0000000A3E1B0E0EFEDF0E00C94B8077C01A3
:1001C0001B016A01FC0117821682838181FF66C3CD
:1001D000BE016F5F7F4F4B01F7019381F10193FDEA
:1001E000859193FF81911F01882309F453C38532C0
:1001F00039F493FD859193FF81911F01853239F484
:10020000B70190E00E947D0B56016501E5CF10E03B
:10021000512C20E02032A0F48B3269F030F480328F
:1002200059F0833269F420612CC08D3239F080336B
:1002300039F4216026C02260246023C0286021C0D8
:1002400027FD27C030ED380F3A3078F426FF06C07E
:10025000FAE01F9F300D1124132F13C06AE0569E41
:10026000300D1124532E20620CC08E3221F426FD55
:1002700011C3206406C08C3611F4206802C0883691
:1002800041F4F10193FD859193FF81911F0181114B
:10029000C1CF9BEB980F933018F42061805E06C0AD
:1002A0009BE9980F933008F0AAC12F7E26FF16E035
:1002B0002F73722E853621F4F22FF0647F2E08C042
:1002C000863621F4622F6068762E02C0111111501B
:1002D00077FE07C01C3348F444244394410E27E0C2
:1002E0000BC0183030F4212F06C027E04CE3442E19
:1002F00003C027E017E0412C560174E0A70EB11CA3
:10030000F6016081718182819381042DA4010E9494
:10031000270A6C01098100FF02C003FF06C071FCBF
:1003200007C072FC08C0612C08C03DE2632E05C006
:100330002BE2622E02C090E2692E802F8C7099F120
:10034000662011F084E001C083E0851510F0512C87
:100350000BC0581A73FC08C0B70180E290E00E94FD
:100360007D0B5A94C9F7F3CF662029F0B701862D8B
:1003700090E00E947D0B03FD03C008E510E002C081
:1003800004E510E0F72DF0717F2EF80184918823A9
:1003900009F476C271108052B70190E00E947D0B83
:1003A0000F5F1F4FF2CF77FE0FC04C0C04FF04C04D
:1003B0008A81813309F44A94141474F5F8E0F41531
:1003C00078F588E0482E2CC076FC2AC0812F90E07A
:1003D0008C159D059CF06CEFC6166FEFD60674F079
:1003E000772D7068772E0AC0E2E0F0E0EC0FFD1F79
:1003F000E10FF11D8081803319F411501111F4CFF8
:1004000077FE0EC044244394410E812F90E0C8161D
:10041000D9062CF41C1904C04424439401C010E0F4
:1004200077FE07C01C141D043CF496012F5F3F4F5C
:1004300005C025E030E002C021E030E0662011F088
:100440002F5F3F4F112331F0412F50E04F5F5F4F3F
:10045000240F351F452D50E02417350714F4521A88
:1004600001C0512C872D897049F4552039F0B7010E
:1004700080E290E00E947D0B5A94F7CF662029F02D
:10048000B701862D90E00E947D0B73FC09C05520BA
:1004900039F0B70180E390E00E947D0B5A94F7CFCA
:1004A00077FE5FC09C2D8D2DD7FE02C090E080E0CE
:1004B000692E782E40E050E0C601841991099D878D
:1004C0008C87960126193709280D391D812F90E058
:1004D000EE27FF27E81BF90BFF87EE87FFEF6F166C
:1004E0007F0669F4B7018EE290E02B8B3A8B488B44
:1004F000598B0E947D0B598948893A892B89C614EA
:10050000D70454F06C857D85661577052CF4F901C8
:10051000E40FF51F818101C080E371E0671A710863
:100520004F5F5F4FEE85FF856E167F066CF0B7015B
:1005300090E02B8B3A8B488B598B0E947D0B2B893B
:100540003A8948895989CACF6C147D0439F49A8153
:10055000963318F4953311F404FF81E3B70190E06A
:100560004BC08A81813309F00F7EB70190E00E9471
:100570007D0B111105C074FE18C085E490E017C012
:10058000B7018EE290E00E947D0B82E066246394C6
:10059000680EF401E80FF11D8081B70190E00E9420
:1005A0007D0B115041F3862DF1CF85E690E0B70128
:1005B0000E947D0BD7FC05C0C114D10439F404FF9F
:1005C00005C0D194C194D1088DE201C08BE2B7017E
:1005D00090E00E947D0B80E36AE0C616D1042CF007
:1005E0008F5FFAE0CF1AD108F7CFB70190E00E94F1
:1005F0007D0BB701C601C0960E947D0B41C18336B9
:1006000031F0833779F0833509F058C021C05601A5
:1006100072E0A70EB11CF6018081898301E010E031
:10062000640114C05601F2E0AF0EB11CF601C080A7
:10063000D18026FF03C0612F70E002C06FEF7FEF13
:10064000C6012B8B0E94330B8C012B892F7715C091
:100650005601F2E0AF0EB11CF601C080D18026FF3A
:1006600003C0612F70E002C06FEF7FEFC6012B8BDC
:100670000E94FF0A8C012B892068722E23FD1AC06C
:10068000852D90E008171907A8F4B70180E290E0E3
:100690000E947D0B5A94F4CFF60177FC859177FE8A
:1006A00081916F01B70190E00E947D0B51105A9427
:1006B000015011090115110579F7E2C0843611F0D6
:1006C000893651F5560127FF09C0F4E0AF0EB11C81
:1006D000F60160817181828193810AC0F2E0AF0EE0
:1006E000B11CF60160817181882777FD8095982F74
:1006F000022F0F7697FF08C09095809570956195B1
:100700007F4F8F4F9F4F00682AE030E0A4010E9486
:10071000D10BC82EC8183EC0022F853721F40F7E9A
:100720002AE030E01DC0097F8F3691F018F488353B
:1007300059F0B0C0803719F0883711F0ABC00061B4
:1007400004FF09C0046007C024FF08C0066006C09B
:1007500028E030E005C020E130E002C020E132E0D6
:10076000560107FF09C0F4E0AF0EB11CF60160812D
:1007700071818281938108C0F2E0AF0EB11CF60155
:100780006081718180E090E0A4010E94D10BC82EAD
:10079000C8180F7706FF0BC0202F2E7FC11650F40C
:1007A00004FF0AC002FD08C0202F2E7E05C0DC2CED
:1007B000202F03C0DC2C01C0D12E24FF0DC0FE0170
:1007C000EC0DF11D8081803311F4297E09C022FFD8
:1007D00006C0D394D39404C0822F867809F0D394B2
:1007E00023FD13C020FF06C01C2DD51418F4150DD1
:1007F0001D19D52CD51468F4B70180E290E02B8B3D
:100800000E947D0BD3942B89F5CFD51410F45D187D
:1008100001C0512C24FF12C0B70180E390E02B8B64
:100820000E947D0B2B8922FF17C021FF03C088E5A2
:1008300090E002C088E790E0B7010CC0822F867874
:1008400059F021FD02C080E201C08BE227FD8DE25C
:10085000B70190E00E947D0BC11638F4B70180E328
:1008600090E00E947D0B1150F7CFCA94F401EC0D7B
:10087000F11D8081B70190E00E947D0BC110F5CF82
:10088000552009F4C2CCB70180E290E00E947D0BB4
:100890005A94F6CFF7018681978102C08FEF9FEFC0
:1008A0006396E2E10C94D40780FF02C0949A01C0E1
:1008B000949881FF02C0959A01C0959882FF02C06A
:1008C000969A01C0969883FF02C0979A08959798C8
:1008D0000895CF93C82F939A82958F700E945404E5
:1008E0009398939A8C2F0E945404939885E88A9544
:1008F000F1F70000CF91089592980C946904929AB0
:100900000C946904CF93DF93EC018991882319F04B
:100910000E947F04FACFDF91CF91089590E4699F00
:10092000800D112480680C947C04CF938C9A8D9A4E
:100930008E9A8F9A8B9A8A9A8FE295E70197F1F7B0
:1009400000C0000092989398C3E0939A83E00E94BD
:10095000540493988FE097E20197F1F700C00000EC
:10096000C15099F7939A82E00E94540493988FECB7
:1009700097E00197F1F700C0000088E20E947C0434
:1009800088E00E947C0481E00E947C048FE99FE063
:100990000197F1F700C0000086E00E947C048CE023
:1009A000CF910C947C042F923F924F925F926F9262
:1009B0007F928F929F92AF92BF92CF92DF92EF92EF
:1009C000FF920F931F93CF93DF93CDB7DEB72C9792
:1009D0000FB6F894DEBF0FBECDBF1C012DB73EB7DA
:1009E00038872F83FC0101900020E9F73197E81B3D
:1009F000F90BCF0199279A83898301979E838D8371
:100A0000EDB7FEB729813A81E21BF30B0FB6F894DC
:100A1000FEBF0FBEEDBF0DB71EB70F5F1F4F812C7E
:100A2000912C5401C80101969A878987ED81FE8136
:100A3000E00FF11FFC87EB878091AA019091AB0139
:100A4000A091AC01B091AD0188579C4EAF4FBF4F04
:100A500088169906AA06BB0650F01092AA011092B9
:100A6000AB011092AC011092AD0182E060C08091A8
:100A70005202843011F410925202E2EBF1E0019044
:100A80000020E9F73197CF01825B91406C01E12CA6
:100A9000F12CC114D104E104F10409F470C08FEC0D
:100AA00097E00197F1F700C000009FEF891A990ABB
:100AB000A90AB90AE2EBF1E001900020E9F73197C9
:100AC000CF01825B9140A0E0B0E0C816D906EA06EB
:100AD000FB0609F054C0E2EBF1E0FC83EB83412C10
:100AE000512C32014D815E8169857A85C8010E9451
:100AF000130BEB81FC818191FC83EB83EB85FC85FF
:100B0000808349815A81B101C8010E94250BFFEF02
:100B10004F1A5F0A6F0A7F0A892B59F51092AA01B2
:100B20001092AB011092AC011092AD0181E0809364
:100B30005202EF81F8850FB6F894FEBF0FBEEDBFED
:100B40002C960FB6F894DEBF0FBECDBFDF91CF91CC
:100B50001F910F91FF90EF90DF90CF90BF90AF90DB
:100B60009F908F907F906F905F904F903F902F90CD
:100B700008954C145D046E047F0408F4B3CF8FEC29
:100B800097E00197F1F700C000009FEF891A990ADA
:100B9000A90AB90A51CF80EAE2EBF1E0DF011D9228
:100BA0008A95E9F71092B1011092B0011092AF014D
:100BB0001092AE010895CF93DF93EC0184E080930F
:100BC0005202CE010E94D304809152028823C9F3BD
:100BD000DF91CF9108950E94DB0581E09091520250
:100BE000923009F480E008950F931F93CF93DF9321
:100BF0008C01EB010E94CB05C8010E94AC0788EC78
:100C000090E00E94AC07CE01DF91CF911F910F9130
:100C10000C94EB050F931F93CF93DF93CDB7DEB703
:100C200064970FB6F894DEBF0FBECDBF8E010F5F85
:100C30001F4F94E1F80111929A95E9F71F928F9353
:100C400087E690E09F938F931F930F930E94AF0BC3
:100C50001C8A60E670E0C8010E94F4050F900F90B6
:100C60000F900F900F900F9064960FB6F894DEBF20
:100C70000FBECDBFDF91CF911F910F9108950F93BC
:100C80001F93CF93DF93CDB7DEB764970FB6F89479
:100C9000DEBF0FBECDBF8E010F5F1F4F94E1F80185
:100CA00011929A95E9F71F928F9385E790E09F93B1
:100CB0008F931F930F930E94AF0B1C8A60E670E026
:100CC000C8010E94F4050F900F900F900F900F90A5
:100CD0000F9064960FB6F894DEBF0FBECDBFDF91C4
:100CE000CF911F910F910895CF93C5E060E670E01A
:100CF00082E890E00E94F405882311F081E00AC0A8
:100D000060E670E087E890E00E94F4058111F6CF7C
:100D1000C15061F7CF9108950F931F93CF93DF9345
:100D2000CDB7DEB764970FB6F894DEBF0FBECDBF68
:100D30008E010F5F1F4F94E1F80111929A95E9F728
:100D40001F928F9388E990E09F938F931F930F9347
:100D50000E94AF0B1C8A60E670E0C8010E94F40597
:100D60000F900F900F900F900F900F9064960FB60A
:100D7000F894DEBF0FBECDBFDF91CF911F910F91D1
:100D8000089560E670E08FEE90E00E94F4056CEF4D
:100D900070E082EB91E00E943E0B892BD1F465E07C
:100DA00071E082EB91E00E943E0B892BA1F46EE092
:100DB00071E082EB91E00E943E0B892B71F467E1B8
:100DC00071E082EB91E00E943E0B892B41F484E0BC
:100DD000089580E0089581E0089582E0089583E019
:100DE00008951F920F920FB60F9211242F938F9395
:100DF0009F93EF93FF932FB7F894E091B001F09198
:100E0000B1018CB1EE54FE4F80838091B00190917E
:100E1000B10101969093B1018093B0018091B0012E
:100E20009091B101803A910541F41092B101109274
:100E3000B0011092AF011092AE012FBFFF91EF9160
:100E40009F918F912F910F900FBE0F901F9018952B
:100E5000CF93DF93CDB7DEB728970FB6F894DEBFF8
:100E60000FBECDBF0E94950460E080E00E948E041A
:100E700089E991E00E94820460E072EC81E090E0F8
:100E80000E94840778942FEF83ED90E321508040F7
:100E90009040E1F700C0000061E080E00E948E0415
:100EA0000E947406882319F08EE991E002C083EA5B
:100EB00091E00E9482040E9474068823E1F383E09B
:100EC0000E948C0680E00E943F0680E00E940A0695
:100ED0000E94C1064AE0BE016F5F7F4F90E00E9412
:100EE000580B61E087E00E948E04CE0101960E94BB
:100EF000820480E090E028960FB6F894DEBF0FBE23
:100F0000CDBFDF91CF910895599A2AB128692AB9A6
:100F100020B5266820BD0E94ED0820E030E040E0CA
:100F200051E40E947B099B01AC0160E074E284EF14
:100F30009AE40E94540820E030E040E85FE30E9419
:100F4000EF070E94DE090E94BC0869B970BD0895D0
:100F50008CB95D9BFECF0895CF93DF93EC0189910F
:100F6000882319F00E94A807FACFDF91CF91089546
:100F70002F923F924F925F926F927F928F929F92A9
:100F8000AF92BF92CF92DF92EF92FF920F931F9397
:100F9000CF93DF93CDB7DEB7CA1BDB0B0FB6F89448
:100FA000DEBF0FBECDBF09942A88398848885F8488
:100FB0006E847D848C849B84AA84B984C884DF80F9
:100FC000EE80FD800C811B81AA81B981CE0FD11DDD
:100FD0000FB6F894DEBF0FBECDBFED010895505897
:100FE000BB27AA270ED04DC13ED130F043D120F00F
:100FF00031F49F3F11F41EF433C10EF4E095E7FB8A
:1010000029C1E92F4FD180F3BA176207730784070C
:10101000950718F071F49EF567C10EF4E0950B2E5C
:10102000BA2FA02D0B01B90190010C01CA01A0013A
:101030001124FF27591B99F0593F50F4503E68F195
:101040001A16F040A22F232F342F4427585FF3CFD6
:10105000469537952795A795F0405395C9F77EF4A7
:101060001F16BA0B620B730B840BBAF09150A1F0F0
:10107000FF0FBB1F661F771F881FC2F70EC0BA0F76
:10108000621F731F841F48F4879577956795B795FE
:10109000F7959E3F08F0B3CF9395880F08F09927F6
:1010A000EE0F9795879508950CD0EBC0E3D040F0F4
:1010B000DAD030F021F45F3F19F0CCC0511115C1E6
:1010C000CFC0F0D098F39923C9F35523B1F3951B02
:1010D000550BBB27AA2762177307840738F09F5F59
:1010E0005F4F220F331F441FAA1FA9F333D00E2EC8
:1010F0003AF0E0E830D091505040E695001CCAF735
:1011000029D0FE2F27D0660F771F881FBB1F2617F9
:1011100037074807AB07B0E809F0BB0B802DBF01CC
:10112000FF2793585F4F2AF09E3F510568F092C009
:10113000DCC05F3FECF3983EDCF3869577956795CE
:10114000B795F7959F5FC9F7880F911D969587957D
:1011500097F90895E1E0660F771F881FBB1F62179C
:1011600073078407BA0720F0621B730B840BBA0B5A
:10117000EE1F88F7E095089504D06894B111B5C0CA
:10118000089598D088F09F5790F0B92F9927B751BC
:10119000A0F0D1F0660F771F881F991F1AF0BA953B
:1011A000C9F712C0B13081F09FD0B1E008959CC062
:1011B000672F782F8827B85F39F0B93FCCF3869531
:1011C00077956795B395D9F73EF49095809570958E
:1011D00061957F4F8F4F9F4F0895E89409C097FB0B
:1011E0003EF490958095709561957F4F8F4F9F4FFE
:1011F0009923A9F0F92F96E9BB279395F695879542
:1012000077956795B795F111F8CFFAF4BB0F11F404
:1012100060FF1BC06F5F7F4F8F4F9F4F16C08823AB
:1012200011F096E911C0772321F09EE8872F762FE1
:1012300005C0662371F096E8862F70E060E02AF022
:101240009A95660F771F881FDAF7880F969587950E
:1012500097F9089597F99F6780E870E060E0089536
:101260009FEF80EC089500240A94161617061806BE
:101270000906089500240A9412161306140605069A
:101280000895092E0394000C11F4882352F0BB0F2B
:1012900040F4BF2B11F460FF04C06F5F7F4F8F4F8E
:1012A0009F4F089557FD9058440F551F59F05F3FC9
:1012B00071F04795880F97FB991F61F09F3F79F078
:1012C00087950895121613061406551FF2CF4695FA
:1012D000F1DF08C0161617061806991FF1CF86957C
:1012E0007105610508940895E894BB276627772760
:1012F000CB0197F908950BD0C4CFB5DF28F0BADF42
:1013000018F0952309F0A6CFABCF1124EECFCADF9A
:10131000A0F3959FD1F3950F50E0551F629FF00108
:10132000729FBB27F00DB11D639FAA27F00DB11D61
:10133000AA1F649F6627B00DA11D661F829F2227EA
:10134000B00DA11D621F739FB00DA11D621F839F71
:10135000A00D611D221F749F3327A00D611D231F47
:10136000849F600D211D822F762F6A2F11249F5795
:1013700050408AF0E1F088234AF0EE0FFF1FBB1FB8
:10138000661F771F881F91505040A9F79E3F510557
:1013900070F060CFAACF5F3FECF3983EDCF3869508
:1013A00077956795B795F795E7959F5FC1F7FE2B02
:1013B000880F911D9695879597F908957BDFE0F04A
:1013C0009E37D8F09639B8F49E3848F4672F782FB6
:1013D0008827985FF9CF8695779567959395953986
:1013E000D0F3B62FB1706B0F711D811D20F487955E
:1013F00077956795939502C01CC077CF882371F4C9
:10140000772321F09850872B762F07C0662311F49D
:1014100099270DC09051862B70E060E02AF09A95D4
:10142000660F771F881FDAF7880F9695879597F9CB
:1014300008959F3F31F0915020F4879577956795F7
:10144000B795880F911D9695879597F9089528303F
:1014500008F027E03327DA01990F311D87FD9160ED
:1014600000966105710539F432602E5F3D9330E3DB
:101470002A95E1F708959F3F30F0803871056105A6
:1014800009F03C5F3C5F3D93913008F08068911D0E
:10149000DF93CF931F930F93FF92EF92192F987FB3
:1014A0009695E92F96959695E90FFF27ED52FF4FF8
:1014B00099273327EE24FF24A701E701059008941C
:1014C000079428F4360FE71EF81E491F511D660FBA
:1014D000771F881F991F0694A1F70590079428F499
:1014E000E70EF81E491F561FC11D770F881F991F51
:1014F000661F0694A1F70590079428F4F80E491F7B
:10150000561FC71FD11D880F991F661F771F06948E
:10151000A1F70590079420F4490F561FC71FD81F45
:10152000990F661F771F881F0694A9F7849110955D
:10153000177041F0D695C79557954795F794E7945E
:101540001A95C1F7E9E7F0E0689415901591359187
:101550006591959105907FE27395E118F10A430B2F
:10156000560BC90BD009C0F7E10CF11E431F561FE3
:10157000C91FD01D7EF4703311F48A95E6CFE8942C
:10158000015030F0080F0AF40027021708F4202F4A
:101590002395022F7A3328F079E37D932A95E9F792
:1015A00010C07D932A9589F606949795679537958F
:1015B00017951794E118F10A430B560BC90BD00984
:1015C00098F023957E9173957A3308F070E37C93BD
:1015D0002013B8F77E9170617D9330F0839571E3AD
:1015E0007D9370E32A95E1F71124EF90FF900F911E
:1015F0001F91CF91DF91992787FD90950895FC0168
:101600000590615070400110D8F7809590958E0F2D
:101610009F1F0895FB01DC0102C001900D92415013
:101620005040D8F708956817790768F4FB01DC018A
:10163000E40FF51FA40FB51F02C002900E92415097
:101640005040D8F708950C940A0BFB01DC0141507F
:10165000504030F08D910190801919F40020B9F7B5
:10166000881B990B0895FC01615070400190011096
:10167000D8F7809590958E0F9F1F0895FB0151918B
:101680005523A9F0BF01DC014D9145174111E1F748
:1016900059F4CD010190002049F04D9140154111C0
:1016A000C9F3FB014111EFCF81E090E0019708956C
:1016B000BB274A3031F4992322F4BDE290958195FD
:1016C0009F4F0C94640BBB27FB015527AA27880F5B
:1016D000991FAA1FA41710F0A41B83955051B9F7A6
:1016E000A05DAA3308F0A95DA193009779F7B11125
:1016F000B1931192CB010C942F0C0F931F93CF93A6
:10170000DF93182F092FEB018B8181FD03C08FEF31
:101710009FEF20C082FF10C04E815F812C813D81F0
:10172000421753077CF4E881F9819F012F5F3F4FF7
:1017300039832883108306C0E885F985812F0995B0
:10174000892B29F72E813F812F5F3F4F3F832E83C7
:10175000812F902FDF91CF911F910F910895AEE0CF
:10176000B0E0E5EBFBE00C94C6070D891E8986E02E
:101770008C831A8309838FEF9FE79E838D83AE014D
:10178000475E5F4F6F89788DCE0101960E94D90028
:10179000EF81F885E00FF11F10822E96E4E00C94A3
:1017A000E207FA01AA27283051F1203181F1E894AB
:1017B0006F936E7F6E5F7F4F8F4F9F4FAF4FB1E044
:1017C0003ED0B4E03CD0670F781F891F9A1FA11D3F
:1017D000680F791F8A1F911DA11D6A0F711D811D40
:1017E000911DA11D20D009F468943F912AE0269F05
:1017F00011243019305D3193DEF6CF010895462F64
:101800004770405D4193B3E00FD0C9F7F6CF462F44
:101810004F70405D4A3318F0495D31FD40524193AD
:1018200002D0A9F7EACFB4E0A6959795879577956A
:101830006795BA95C9F700976105710508959B01F1
:10184000AC010A2E06945795479537952795BA957A
:10185000C9F7620F731F841F951FA01D0895DC0137
:10186000FC01672F71917723E1F7329704C07C91D7
:101870006D9370836291AE17BF07C8F30895F89413
:02188000FFCF98
:101882000D0A4F4B0D0A0041542B4349504D4F4412
:10189200453D25640041542B4349504D55583D2543
:1018A2006400415445300041540041542B43495097
:1018B200434C4F53453D310041542B43574D4F4408
:1018C200453D25640041542B43574A41503D222552
:1018D20073222C22257322000D0A574946492043C0
:1018E2004F4E4E45435445440D0A002B43574A413F
:1018F200503A31002B43574A41503A32002B43575A
:101902004A41503A33002B43574A41503A3400413E
:10191200542B43495053544154555300535441544A
:1019220055533A32005354415455533A33005354A9
:10193200415455533A34005354415455533A3500A7
:101942004349504D55583A300041542B4349504D6C
:1019520055583F0041542B43495053544152543D32
:1019620022544350222C222573222C2573004154E9
:101972002B43495053544152543D222564222C2278
:10198200544350222C222573222C257300434F4EA0
:101992004E4543540D0A0041542B43495053454E82
:1019A200443D2564000D0A4F4B0D0A3E000D0A53BB
:1019B200454E44204F4B0D0A005465737400547217
:0A19C20075650046616C7365000056
:00000001FF
